:020000040800F2
:10000000C006002439030008271600085113000811
:10001000251600083F040008EB1800080000000047
:100020000000000000000000000000002B16000887
:100030004104000800000000291600082D160008E1
:100040005303000853030008530300085303000838
:100050005303000853030008530300085303000828
:100060005303000853030008530300085303000818
:100070005303000853030008530300085303000808
:1000800053030008530300085303000853030008F8
:1000900053030008530300085303000853030008E8
:1000A00053030008530300085303000853030008D8
:1000B00053030008530300085303000853030008C8
:1000C00053030008530300085303000853030008B8
:1000D00053030008530300085303000853030008A8
:1000E00053030008530300080000000053030008F6
:1000F0005303000853030008530300085303000888
:100100005303000853030008530300085303000877
:100110005303000853030008530300085303000867
:100120005303000853030008530300085303000857
:100130005303000853030008530300085303000847
:1001400000000000000000000000000000000000AF
:100150005303000853030008530300085303000827
:100160005303000853030008530300085303000817
:100170005303000853030008530300080000000065
:1001800053030008530300085303000853030008F7
:1001900053030008530300085303000853030008E7
:1001A00053030008530300085303000853030008D7
:1001B00053030008530300085303000853030008C7
:1001C00053030008530300085303000853030008B7
:1001D00053030008530300085303000853030008A7
:1001E0005303000853030008530300085303000897
:1001F0005303000853030008530300085303000887
:100200005303000853030008530300085303000876
:100210005303000853030008530300085303000866
:1002200053030008530300085303000800000000B4
:1002300053030008530300080000000053030008A4
:100240005303000853030008530300085303000836
:100250005303000853030008530300085303000826
:100260005303000853030008530300085303000816
:100270005303000853030008530300080000000064
:100280005303000853030008530300080000000054
:10029000000000005303000800F002F800F03CF8F2
:1002A0000AA090E8000C82448344AAF10107DA45D1
:1002B00001D100F031F8AFF2090EBAE80F0013F0E7
:1002C000010F18BFFB1A43F0010318478017000005
:1002D000A0170000103A24BF78C878C1FAD8520796
:1002E00024BF30C830C144BF04680C6070470000B0
:1002F0000023002400250026103A28BF78C1FBD82F
:10030000520728BF30C148BF0B6070471FB501F0CE
:1003100090FB1FBD10B510BD00F058F81146FFF757
:10032000F5FF01F001FB00F076F803B4FFF7F2FFF0
:1003300003BC00F07DF800000948804709480047E9
:10034000FEE7FEE7FEE7FEE7FEE7FEE7FEE7FEE785
:10035000FEE7FEE704480549054A064B70470000E2
:10036000D516000899020008C0000024C006002429
:10037000C0020024C00200244FF0000200B5134662
:1003800094469646203922BFA0E80C50A0E80C50B5
:10039000B1F12001BFF4F7AF090728BFA0E80C5066
:1003A00048BF0CC05DF804EB890028BF40F8042B5F
:1003B00008BF704748BF20F8022B11F0804F18BFCC
:1003C00000F8012B7047704770477047754600F082
:1003D0002BF8AE4605006946534620F007008546D7
:1003E00018B020B5FFF7B6FFBDE820404FF000067B
:1003F0004FF000074FF000084FF0000B21F007010D
:10040000AC46ACE8C009ACE8C009ACE8C009ACE84F
:10041000C0098D46704710B50446AFF300802046F2
:10042000BDE81040FFF781BF00487047600000241E
:1004300001491820ABBEFEE7260002007047FEE728
:10044000704700002DE9FC4F01257E4C00234FF042
:10045000030A4FF0B04E4FF00F0BEBE005FA03F636
:1004600037403A0077D04F68012F05D0022F03D0D4
:10047000112F01D0122F1AD187684FEA4308D1F803
:100480000CC00AFA08F927EA09070CFA08FC4CEA3A
:10049000070CC0F808C0476891F804C0B743CCF314
:1004A000001C0CFA03FC4CEA070CC0F804C0C66838
:1004B0004FEA430CD1F80880E1460AFA0CF7BE4334
:1004C000019708FA09F848EA0608C0F80C804E6857
:1004D000022E01D0122E12D1DE084FEA437C00EB2F
:1004E000860600960F69366A4FEADC6C0BFA0CF848
:1004F00007FA0CF726EA08063743009E37620E79A2
:100500000768DDF804C006F0030606FA09F627EAD4
:100510000C073E4306604E68F6001CD54A4E37680D
:1005200047F00207376036689F0706F0020600961C
:1005300023F0030606F1B046B1463F0FD6F8086433
:10054000DFF808810BFA07FC404526EA0C0603D1C8
:100550004FF0000C41E06CE0DFF8F4C0604502D1E0
:100560004FF0010C39E0DFF8ECC0604502D14FF0EC
:10057000020C32E0DFF8E0C0604502D14FF0030C1E
:100580002BE0DFF8D8C0604502D14FF0040C24E026
:10059000DFF8CCC0604502D14FF0050C1DE0DFF85C
:1005A000C4C0604502D14FF0060C16E0DFF8B8C0B9
:1005B000604502D14FF0070C0FE0DFF8B0C0604596
:1005C00002D14FF0080C08E0DFF8A4C0604502D16A
:1005D0004FF0090C01E04FF00A0C0CFA07FC4CEA52
:1005E000060CC9F808C426684F6826EA0206FF030D
:1005F00000D51643266066684F6826EA0206BF03E8
:1006000000D516436660D1F804C07646DEF8007067
:100610005FEACC2C27EA020700D517433760D1F8F0
:1006200004C077685FEA8C2C27EA020700D51743DD
:1006300077605B1C0A681746DA407FF40FAFBDE8AD
:10064000FC8F000080000058F4440258000002585B
:100650000004025800080258000C0258001002580A
:100660000014025800180258001C025800200258BA
:10067000002402580AB1816170470904FBE70000B9
:1006800001480068000C70470010005C0148806859
:10069000704700000000002402488168027811447D
:1006A0008160704700000024032010B500F078F846
:1006B00000F0E0F90F4A104914681368C4F30322EC
:1006C00003F00F038A5CC95C02F01F0201F01F01F6
:1006D000D0400A4A20FA01F111600949086000205F
:1006E00000F010F808B1012010BD00F02BF8002038
:1006F00010BD0000184402583C1A000810000024E5
:100700000C00002470B50D4D04462878A0B14FF4BC
:100710007A71B1FBF0F00A490968B1FBF0F000F022
:10072000B9FC48B9102C07D200222146501E00F017
:1007300017F800206C6070BD012070BD000000241F
:100740000C000024054808B5016841F00201016071
:10075000006800F00200009008BD0000F444025858
:100760000E4BF0B41B680D46C3F30223C3F107061A
:10077000042E00D90426191D072901D2002300E008
:10078000DB1E012404FA06F19C40491E2940641E28
:10079000994014402143F0BC01F0A8B80CED00E0F2
:1007A000064900F0070210B54FF6FF040868044B35
:1007B000204040EA02201843086010BD0CED00E024
:1007C0000000FA05134970B50A68D243520705D5EF
:1007D000096801F00701814213D118E00A6822F08C
:1007E000070202430A60FFF751FF0A4D4FF47A7681
:1007F0000446083D07E000BFFFF748FF001BB0427A
:1008000001D9012070BD2868C0438004F4D40020C1
:1008100070BD00000C4802582DE9F05F04000F463F
:100820007ED0DFF83882D8F8000000F00F00B84220
:100830000CD2D8F8001021F00F013943C8F800108D
:10084000D8F8000000F00F00B84269D12078844D3C
:1008500040070AD52069296801F07001884204D94F
:10086000296821F070010143296020787C4E361DF3
:1008700000070AD56069316801F07001884204D927
:10088000316821F07001014331602078C0060AD53B
:10089000A069316801F4E061884204D9316821F42B
:1008A000E061014331602078DFF8B4B180060BF1DC
:1008B000080B0CD5E1695846DBF8002002F0700205
:1008C000914204D9026822F070020A430260207843
:1008D00080070AD5E068296801F00F01884204D931
:1008E000296821F00F01014329602078C0073ED01C
:1008F0005B49A2682868183920F4706010432860AA
:100900006068022818D0032819D00968012819D076
:10091000490700294ADADFF848A1AAF1080A00E0ED
:1009200044E0DAF8002022F007020243CAF800206F
:10093000FFF7ACFE814612E009688903E9E7096820
:100940008901E6E7C905E4E7FFF7A0FEA0EB09018E
:1009500041F28830814202D90320BDE8F09F6168EE
:10096000DAF8000000F03800B0EBC10FECD12078CD
:1009700080070AD5E068296801F00F01884204D297
:10098000296821F00F0101432960D8F80010404682
:1009900001F00F01B9420BD9016821F00F01394371
:1009A0000160006800F00F00B84201D00120D4E7D8
:1009B000207840070AD52069296801F07001884233
:1009C00004D2296821F070010143296020780007D2
:1009D0000AD56069316801F07001884204D231683B
:1009E00021F07001014331602078C0060AD5A0696A
:1009F000316801F4E061884204D2316821F4E06199
:100A000001433160207880060CD5E1695846DBF857
:100A1000002002F07002914204D2026822F07002BB
:100A20000A43026000F026F80E492A682B68C2F3D8
:100A3000032203F00F038A5CC95C02F01F0201F07D
:100A40001F01D040084A20FA01F1116007490860EF
:100A500007480068BDE8F05FFFF754BE0020005271
:100A6000184402583C1A0008100000240C0000240E
:100A7000040000243F4970B53F4809683D4B103BD6
:100A800011F0380208D00111082A03D0102A01D031
:100A9000182A09D0084670BD19688906FBD519685F
:100AA000C1F3C101C84070BD3249324D18310C1D2F
:100AB00024350A68096826682D6802F0030406F0E8
:100AC0000102C1F30511C5F3CC0515FB02F200EEDE
:100AD000102AB8EE400AE9B3294ADFED280AB7EE3A
:100AE000001A4CB102EE101A1068DFED261AF8EE6B
:100AF000422A81EEA22A1DE01C68A40611D51B68BB
:100B000001EE901A1168C3F3C103F8EE612AD840D0
:100B100001EE900AC1F30800F8EE611A81EEA22AF4
:100B20000AE001EE901A1068DFED172AF8EE611A5C
:100B300082EEA12AC0F3080001EE900A1068F8EED8
:100B4000611A40EE201A31EE810A22EE000AC0F34B
:100B5000462000E00BE0401C00EE900AF8EE600A30
:100B600080EE201ABCEEC10A10EE100A70BD002003
:100B700070BD0000104402580090D00300000039FE
:100B8000304402580024744A0024744C2DE9F05F6C
:100B900004007CD0FF4F2078FE4D1837DFF8F49327
:100BA000103DC00748D0D9F80000396800F038007F
:100BB000102815D0182803D101F0030002280FD007
:100BC0006068B0F5803F12D010B1B0F5A02F18D0FA
:100BD000286820F480302860286820F4802009E00C
:100BE0002868800328D560680028D2D024E02868CF
:100BF00040F480302860606888B1FFF747FD064602
:100C000009E0286840F480202860F0E7FFF73EFD07
:100C1000801B64287ED828688003F7D50CE0FFF796
:100C200035FD064605E000BFFFF730FD801B642858
:100C3000F0D828688003F7D4207841F20308D54E15
:100C40000C3E800753D5D9F80000396810F0380001
:100C50000ED0182801D188070AD0E068A8B3296807
:100C600021F0190101432960FFF710FD82461BE0C6
:100C70002868400702D5E06800288AD0FFF700FD09
:100C800040451BD82069402812D0316800E0CCE0F4
:100C900021F47C3141EA0030306028E0FFF7F6FCB7
:100CA000A0EB0A000228B5D828684007F6D5E5E78A
:100CB000306820F47C3040F40030EDE7207C31686F
:100CC00021F0FE4141EA0060E6E7FFE7286820F0F6
:100CD00001002860FFF7DAFC824605E0FFF7D6FC4A
:100CE000A0EB0A00022895D828684007F6D420789F
:100CF000C0065FD5D9F80000DFF898B2396800F077
:100D00003800ABF1040B082812D0182805D101F0E7
:100D1000030000E0EAE001280AD0E0690028286822
:100D200038D040F080002860FFF7B0FC824623E016
:100D30002868C00523D5E069802876D11FE0206AA5
:100D4000202821D0316821F0F84141EA80603060EC
:100D500030E000BF94F82010DBF8002022F07C5235
:100D600042EA0161CBF8001024E000BFFFF78EFCDF
:100D7000A0EB0A00022896D82868C005F6D5FFF730
:100D80007FFC4045E6D8DAE7306820F0F84040F0D4
:100D90008040DCE720F080002860FFF777FC064603
:100DA00005E000BFFFF772FC801B02289BD8286873
:100DB000C005F7D42078000729D5764861696430EA
:100DC00000298046016811D041F001010160FFF760
:100DD0005DFC064605E000BFFFF758FC801B0228BB
:100DE000C9D8D8F800008007F6D510E021F001013D
:100DF0000160FFF74BFC064605E000BFFFF746FC2D
:100E0000801B022872D8D8F800008007F6D420781A
:100E1000800623D5A0690028286810D040F48050AF
:100E20002860FFF733FC064605E02CE1FFF72EFCB7
:100E3000801B02285AD828688004F7D50EE020F4D9
:100E400080502860FFF722FC064604E0FFF71EFCF6
:100E5000801B02284AD828688004F7D420784007ED
:100E60004FD5DFF83481D8F8001041F48071C8F80C
:100E70000010FFF70BFC064605E000BFFFF706FC7D
:100E8000801B642832D8D8F80000C005F6D5414E42
:100E9000A068603601280AD008B1052813D0306850
:100EA00020F001003060306820F0040002E030687B
:100EB00040F001003060A06841F2883A90B1FFF73D
:100EC000E5FB80460AE0306840F004003060EEE761
:100ED000FFF7DCFBA0EB0801514507D8306880071D
:100EE000F6D50EE0FFF7D2FB804607E084E000BFB6
:100EF000FFF7CCFBA0EB080151457DD83068800797
:100F0000F6D4606AF0B3DFF88C80D9F8001008F1ED
:100F10002008C1F3C20103296FD00228286820F0FD
:100F20008070286003D0FFF7B1FB044680E0FFF734
:100F3000ADFB064605E000BFFFF7A8FB801B0228BB
:100F400073D828688001F7D4E26A40F2F331386838
:100F500054F8283F884340EA021018433860217B48
:100F60004FF4FE0C22894FF0FE47208A4902267D6D
:100F7000521E401EA1F5007189B20CEA0040C2F376
:100F8000080200E081E01143761E0143014807EAB0
:100F9000066203E010440258004802581C30114316
:100FA0003B4AC8F80010016821F001010160116896
:100FB0004FF6F876236AB14341EAC3011160016834
:100FC000A26921F00C01114301600168E26921F07E
:100FD000020111430160016841F480310160016840
:100FE00041F400310160016841F480210160016831
:100FF00041F00101016001E017E01DE0286840F0C8
:1010000080702860FFF742FB044604E0FFF73EFBD8
:10101000001B022809D828688001F7D535E000BFF9
:10102000FFF734FB001B022802D90320BDE8F09F24
:1010300028688001F4D428E039680128D8F8000035
:1010400021D0A26A01F0030393421CD1E26AC1F3EA
:1010500005118A4217D1216BC0F30802491E8A424A
:1010600011D1616BC0F34622491E91420BD1A16B95
:10107000C0F30642491E914205D1E16BC0F3066000
:10108000491E814201D00120D0E70020CEE70000B8
:1010900034440258401EB0F1807F10B501D30120C6
:1010A00010BD4FF0E02460610F21601700F01EFCBE
:1010B0000020A0610721216110BD0000F0B590F86B
:1010C0003C20012A38D01D4E012480F83C400222E9
:1010D00080F83D2002681A4D5368B242D2F808C029
:1010E00001D0AA4203D14F6823F470033B430F6839
:1010F00023F070031F4357600268B24210D0B2F170
:10110000804F0DD00F4B9A420AD00F4B9A4207D016
:101110000E4B9A4204D0AA4202D00D4B9A4204D1FF
:1011200089682CF0800319439160002180F83D40CC
:1011300080F83C100846F0BD0220F0BD00000140E0
:10114000000401400004004000080040000C004082
:101150000018004010B5040003D094F83D0010B111
:1011600007E0012010BD002084F83C00204600F07C
:1011700023F8022084F83D002068211D00F01CFBAC
:10118000012084F8480084F83E0084F83F0084F889
:10119000400084F8410084F8420084F8430084F859
:1011A000440084F8450084F8460084F8470084F839
:1011B0003D00002010BD000008B5006806498842C7
:1011C00008D10648016841F001010160006800F0A3
:1011D0000100009008BD000000000140F0440258EA
:1011E00090F83D10012901D001207047134B0222D5
:1011F000016880F83D20994211D0B1F1804F0ED0A6
:101200000F4881420BD00F48814208D00E488142DE
:1012100005D00E48814202D00D48814207D188682E
:101220000C4A1040062806D0B0F5803F03D008686D
:1012300040F00100086000207047000000000140FD
:101240000004004000080040000C00400004014081
:10125000001800400700010070B5044690F83C00FB
:10126000012814D0394B012584F83C50022084F821
:101270003D0022689068184020F47F409060086824
:10128000702828D010DC10F00F0F03D04BE04FF087
:10129000020070BD4FEA2012072A44D2DFE802F0B4
:1012A0005151515149323A00B0F1101F49D009DC77
:1012B000B0F5805F37D0B0F5005F17D0B0F5801F74
:1012C00031D13EE0A0F5801120393AD0102938D034
:1012D000202928D135E04A682068D1E9021300F0BE
:1012E000CDFA2068816841F0770109E04A682068FA
:1012F000D1E9021300F0C2FA2068816841F480410C
:10130000816010E0CA684968206800F0CBFA206864
:10131000502106E0CA684968206800F0D4FA2068C5
:10132000602100F0B5FA002084F83D5084F83C00BC
:1013300070BDCA684968206800F0B4FA206840218E
:10134000EFE7226801461046EBE7000088FFCEFF7A
:10135000FEE700002DE9F04F87B014216846FFF743
:101360000BF88C48016841F010010160016801F040
:1013700010010591016841F004010160016801F06C
:1013800004010591016841F020010160016801F04C
:1013900020010591016841F080010160016801F0C0
:1013A00080010591016841F001010160016801F0CF
:1013B00001010591016841F002010160016801F03D
:1013C00002010591016841F040010160016801F0EE
:1013D00040010591016841F00801016000680022A8
:1013E000782100F0080005906B48FFF743F944F2BC
:1013F000010A6A4800225146FFF73CF94FF4806B1E
:10140000674800225946FFF735F966480022022155
:10141000FFF730F903254FF6FD700024694602946A
:10142000CDE900055F48FFF70DF8DFF87C814FF448
:101430000059CDE90094694640460294FFF702F84E
:101440004FF6FF706946CDE9000558480294FEF753
:10145000F9FF41F6CD706946CDE90005404602949A
:10146000FEF7F0FF322000900B2769460226404627
:10147000CDE90164CDE90347FEF7E4FF48F20140FE
:101480006946CDE9000544480294FEF7DBFF86205B
:101490000090CDE9016440486946CDE90347FEF775
:1014A000D1FF782000904FF001083B48CDE901843E
:1014B00069460394FEF7C6FFCDF800A06946CDE962
:1014C000018436480394FEF7BDFF49F6FE70694675
:1014D000CDE9000531480294FEF7B4FFDFF8D0A053
:1014E0004DF27F70CDE90005694650460294FEF743
:1014F000A9FFCDF800906946CDE901642748CDE900
:101500000347FEF79FFF2802009007206946CDE9B8
:101510000164CDE903402248FEF794FFCDF800B006
:101520006946CDE901841E480394FEF78BFF4FF610
:10153000FF006946CDE9000519480294FEF782FFD5
:101540001C4980208DE8130069465046FEF77AFF5B
:101550004FF4C8500294CDE900060A206946CDE94F
:1015600003400D48FEF76EFF4FF420500090CDE988
:101570000164CDE9034769465046FEF763FF0096D4
:101580006946CDE9018407480394FEF75BFF07B085
:10159000BDE8F08FE04402580000025800040258F1
:1015A000000C02580010025800080258001402589B
:1015B000001802580000111110B588B01848002416
:1015C000164947224FF6FE73009401940294039447
:1015D00004940594069480E81600C0E9033444613D
:1015E0008461FFF7B7FD08B172B6FEE74FF4805093
:1015F00000900B486946FFF72FFE08B172B6FEE770
:10160000074804A9049405940694FFF757FD0028A1
:1016100001D072B6FEE708B010BD00000000014026
:1016200014000024FEE7FEE770477047FFF734B868
:1016300070B59CB04C216846FEF79EFE202113A891
:10164000FEF79AFE0220FFF7BDF820490A682048FD
:1016500022F001020A600968016821F4404141F466
:10166000804101600168002401F440411B91016840
:101670008904FCD5022009900121C20336230625E6
:10168000CDE900120AAA082682E82B00CDE91064F1
:101690000E900F9068461294FFF778FA08B172B670
:1016A000FEE713AA3F20032182E8130000211694CD
:1016B00013A81794189419941A94FFF7ADF80028FA
:1016C00001D072B6FEE71CB070BD00002C040058BB
:1016D000184802582E48F0B52E4A016841F47001AE
:1016E0000160106800F00F00072804D2106820F095
:1016F0000F00C01D106028490020274C10340B68D3
:10170000264D43F001030B6020600B682B400B60FB
:10171000136803F00F03072B04D9136823F00F039A
:10172000DB1D13601C4C1E4A18341E4B261D371D32
:101730002060194C1C4D28343060261D3860371D40
:1017400023603B1D35601C1D3A60251D2E1D186051
:10175000331D22602860326018600A680E4B134CFB
:1017600022F4802260330A60186020686FF30F0053
:10177000B0F1005F03D20E490120C1F8080143F225
:10178000D2000C49024B4A03803B08601A60F0BD4E
:1017900088ED00E000200052004402587FEDF6EA98
:1017A00080020101000202020000FF010010005C43
:1017B00000800051004000522DE9F047274B4FF0C8
:1017C000804A274D02689842264E274F274C09D061
:1017D000504507D0A84205D0B04203D0B84201D04E
:1017E000A04205D1D1F804C022F070024CEA0202F6
:1017F000DFF87CC0DFF87C809842DFF87C900FD067
:1018000050450DD0A8420BD0B04209D0B84207D005
:10181000A04205D0604503D0404501D0484503D1E2
:10182000CD6822F440722A434D6922F080022A4397
:10183000026098428A68C2620A68826207D0A04247
:1018400005D0604503D0404501D0484501D1096924
:10185000016301214161BDE8F08700000000014003
:101860000004004000080040000C0040000401405B
:1018700000400140004401400048014042EA032288
:1018800083680A4323F47F410A4382607047000063
:10189000034B82681A400A4342F007018160704797
:1018A0008FFFCFFF10B5036A046A23F00A0324F008
:1018B0000104046284690B4324F0F00141EA02113F
:1018C0008161036210BD10B5036A23F01003036247
:1018D0008369046A23F4704324F0A00443EA0232CB
:1018E000826144EA0111016210BDFEE70907002888
:1018F0004FEA116104DB00F1E02080F8001470472A
:1019000000F00F0000F1E02080F8141D7047000087
:10191000044900220B685A6209684A6A8242FCD371
:101920007047000014000024FEF7BEFEFFF780FEA3
:10193000FFF710FDFFF740FE0948FFF751FC4FF499
:10194000007600250024204600F00CF8052000F069
:1019500069F8641C082CF6DB6D1CB542F2DBF0E77D
:101960001400002410B52E4C082857D2DFE800F0F0
:10197000040B181F26323E40012220460821FEF7A4
:1019800079FE002201E001220BE010212046FEF743
:1019900071FE002220462021FEF76CFE002237E077
:1019A000002220460821FEF765FE0122EDE7002215
:1019B00020460821FEF75EFE012205E000222046B7
:1019C0000821FEF757FE002220461021FEF752FEA6
:1019D0000122DFE7002220460821FEF74BFE00220D
:1019E00020461021FEF746FE01220CE0002200E016
:1019F000012220460821FEF73DFE0022204610214C
:101A0000FEF738FE002220462021FEF733FE012299
:101A10002046BDE810404021FEF72CBE10BD00005E
:101A20000000025843F6381191FBF0F080B2FFF746
:101A30006FBF4FF04070E1EE100A704700000000E9
:101A40000102030401020304060708096C1A0008D6
:101A50000000002414000000D4020008801A0008CE
:101A600014000024AC060000F00200080100000091
:101A700010000000000000000090D0030090D00390
:040000050800029954
:00000001FF
